:020000040000FA
:040000000DEF00F010
:040008002AEF17F0D4
:06001800FF005FEF18F08D
:102600000002400000000009000B000A000F000C4F
:102610004D41583732313920447269766572204312
:0B2620006869702044656D6F0A0000BF
:10262C002BC535F52CC536F52F503010D8A421EF1D
:10263C0013F023EF13F025EF13F0DDEF13F061002F
:10264C00D4F4D9F46100D8F4DAF46100B4F4DFF412
:10265C002F503524316E30503620326EFF0E31241F
:10266C00D96EFF0E3220DA6E6100B4F4DFF4305014
:10267C0007E1030E2F5CD8B046EF13F048EF13F0D0
:10268C004AEF13F0DDEF13F020EE01F03550D926B0
:10269C003650DA226100B4F4DFF420EE02F035504B
:1026AC00D9263650DA226100B4F4DFF42F503524E9
:1026BC00316E30503620326EFE0E3124D96EFF0E44
:1026CC003220DA6E6100B4F4DFF42F503524316E11
:1026DC0030503620326EFD0E3124D96EFF0E322072
:1026EC00DA6E6100B4F4DFF4305007E1070E2F5CB2
:1026FC00D8B083EF13F085EF13F087EF13F0DDEF15
:10270C0013F020EE03F03550D9263650DA22610052
:10271C00B4F4DFF42F503524316E30503620326E45
:10272C00FC0E3124D96EFF0E3220DA6E6100B4F447
:10273C00DFF4305007E1090E2F5CD8B0A8EF13F08E
:10274C00AAEF13F0ACEF13F0DDEF13F035C531F554
:10275C0036C532F5311E321E314A322A030E31147F
:10276C00336E346A335035263450362233502F5E54
:10277C003450305AFC0E2F16FF0E3016D4EF13F0D7
:10278C006100D4F4D9F46100D8F4DAF46100B4F443
:10279C00DFF42F06D8A03006354A362A2F503010D9
:1027AC00D8A4DBEF13F0DDEF13F0C6EF13F012003B
:1027BC006100E0F4D9F46100E4F4DAF4DEC4F6F478
:1027CC00DDC4F7F4000EF86E0800F550250AD8A405
:1027DC00F2EF13F0F4EF13F045EF14F06100E0F4B6
:1027EC00D9F46100E4F4DAF4DE2A000EDD22000EE6
:1027FC001C6E000E1B6E1BC51FF51CC520F51D683D
:10280C001E686100E0F4D9F46100E4F4DAF4DEC48B
:10281C00F6F4DDC4F7F4000EF86E0800F550250A46
:10282C00D8A41BEF14F01DEF14F036EF14F0610078
:10283C00E0F4D9F46100E4F4DAF4DE2A000EDD22CF
:10284C00000E2E6E250E2D6E36C52FF537C530F5C4
:10285C0098EC16F0000E376E010E366E66EF14F023
:10286C006100E0F4D9F46100E4F4DAF4DE2A000E3D
:10287C00DD22000E376E000E366E66EF14F061002E
:10288C00E0F4D9F46100E4F4DAF4DEC4F6F4DDC467
:10289C00F7F4000EF86E0800F5502D6E2E6A36C552
:1028AC002FF537C530F598EC16F06100E0F4D9F44B
:1028BC006100E4F4DAF4DE2A000EDD2230EF14F0CD
:1028CC0012002C6E000184BF6EEF14F070EF14F048
:1028DC00D3EF14F02C50050D010EF324F66E260EDA
:1028EC00F420F76EF86A000EF8220800F5C484F0A4
:1028FC002C50050D010EF326000EF422010EF324CC
:10290C00F66E260EF420F76EF86A000EF822080018
:10291C00F5C485F02C50050D020EF326000EF422A2
:10292C00010EF324F66E260EF420F76EF86A000EF4
:10293C00F8220800F5500309866F000E8C6F2C509E
:10294C00050D030EF326000EF422010EF324F66E91
:10295C00260EF420F76EF86A000EF8220800F5C473
:10296C0089F02C50050D040EF326000EF422010EF6
:10297C00F324F66E260EF420F76EF86A000EF82299
:10298C0008006100D4F32BF52B462B462B46C85080
:10299C002B18F70B2B18C86E848F1200010E2824ED
:1029AC00D96EDA6A050EDA22000EDF6E0201B2A7CA
:1029BC00E2EF14F0E4EF14F0F8EF14F0010E282419
:1029CC00D96EDA6A050EDA22DF8202D8F8EF14F03B
:1029DC000500FA6E5150FD6E5250FE6E5350FF6E54
:1029EC00FA5012000201B2A3FEEF14F000EF15F042
:1029FC0014EF15F0010E2824D96EDA6A050EDA22CE
:102A0C00DF8402D814EF15F00500FA6E4E50FD6EFF
:102A1C004F50FE6E5050FF6EFA501200010E2824DB
:102A2C00D96EDA6A050EDA22DF50D8B420EF15F031
:102A3C0022EF15F031EF15F002D82FEF15F005004D
:102A4C00FA6E4B50FD6E4C50FE6E4D50FF6EFA50B0
:102A5C00120033EF15F08BEC18F0120033C52BF588
:102A6C0034C52CF535C52DF536C52EF546EC16F0CE
:102A7C002BC53DF52CC53EF53D503E10D8A449EF75
:102A8C0015F04BEF15F04DEF15F090EF15F0070E1C
:102A9C003314386E000E3414396E385007083B6E00
:102AAC003950D8A0E82A00083C6E3750D8B461EFF2
:102ABC0015F063EF15F079EF15F03BC538F5010E05
:102ACC00396E382A6CEF15F0D8903936382E6AEFFB
:102ADC0015F06100F4F4D9F46100F8F4DAF439502B
:102AEC00DF1290EF15F03BC538F5010E396E382A20
:102AFC0082EF15F0D8903936382E80EF15F039501A
:102B0C00FF0A3A6E6100F4F4D9F46100F8F4DAF4D7
:102B1C003A50DF161200000EC26E000EC16E000E8F
:102B2C00BE6E080EC36E100EBF6E400EC06E070E4A
:102B3C00CA6EF70ECB6EC668C768A70EC86EC9689A
:102B4C0004011869070E106FEF0E086F070E206F47
:102B5C00F70E286F0069000E196F000E296F000E1A
:102B6C00216F100E096F000E016F000E116F000E19
:102B7C000201896F000E886F000E876F000E866F42
:102B8C00000E0401226F000E2A6F000E026F000E61
:102B9C000A6F000E126F000E1A6F03690B6913692E
:102BAC001B69070E236F2B6904690C6914691C6976
:102BBC000F0E246F2C69130E02016A6F310E146F05
:102BCC00320E156F170E726F150E6B6F1200A290EE
:102BDC00A80E2B6E290E2C6E000E2D6E36EC19F0F5
:102BEC00A292CC0E2B6E2F0E2C6E000E2D6E2FEC97
:102BFC0019F0000E0201A56F000EA66F000EA76F54
:102C0C00000EA86F000EA96F000EAA6FB00EAB6F6E
:102C1C00800EAC6F000EAD6FCF0EAE6F000EAF6FAF
:102C2C00000EB06F000EB16F000EB26F000EB36FDE
:102C3C00C00E2B6E320E2C6E000E2D6E44EC19F065
:102C4C00BE0E2B6E320E2C6E000E2D6E3DEC19F05E
:102C5C00B40E2B6E320E2C6E000E2D6E4BEC19F04A
:102C6C00000E256E000E2A6E000E296E080E5A6E8E
:102C7C00000E286E000E276E000E266EA28012002B
:102C8C002EBE4BEF16F04DEF16F05BEF16F02EBE8E
:102C9C0059EF16F02E5009E1080E2D5CD8A059EF13
:102CAC0016F05BEF16F061EF16F0000E2B6E000EB7
:102CBC002C6E97EF16F02CBE66EF16F068EF16F040
:102CCC005BEF16F02CBE74EF16F02C5009E1080ED9
:102CDC002B5CD8A074EF16F076EF16F078EF16F0A8
:102CEC005BEF16F02BC52FF52CC530F53034303298
:102CFC002F32303430322F32303430322F322FC525
:102D0C0031F530C532F5800E2F6E050E306E2D501C
:102D1C002F262E50302231502F242B6E3250302043
:102D2C002C6E12002F503010D8B49FEF16F0A1EF7C
:102D3C0016F0AAEF16F02F503010D8A4A8EF16F00A
:102D4C00AAEF16F0AFEF16F02D5052EC19F0E2EF9F
:102D5C0016F020EE04F02F50D9263050DA22DE5037
:102D6C00DE10D8B4BCEF16F0BEEF16F0D9EF16F0AB
:102D7C0020EE04F02F50D9263050DA2210EE02F05B
:102D8C002F50E1263050E222DE50E65CE650800AFD
:102D9C00356EDE50800A3558D8B0D7EF16F0D9EF23
:102DAC0016F0E2EF16F020EE02F02F50D92630503C
:102DBC00DA22DE2A000EDD22120015EC19F044ECAA
:102DCC0018F0010E75EC18F0040EB3EC18F0000EB0
:102DDC00486E000E496E010E4A6E100E446E260EA1
:102DEC00456EA0EC18F048C533F5346A49C535F585
:102DFC00366A4AC537F534EC15F0482A3F0E48645C
:102E0C000AEF17F00CEF17F024EF17F0000E486ED6
:102E1C00492A070E496415EF17F017EF17F024EF46
:102E2C0017F0000E496E4A50D8B41FEF17F022EF7E
:102E3C0017F0010E23EF17F0000E4A6EF8EC18F0A5
:102E4C00F9EF16F00DEF00F0A2A22FEF17F031EF13
:102E5C0017F047EF17F0B2A236EF17F038EF17F074
:102E6C0047EF17F002D845EF17F00500FA6E5450F3
:102E7C00FD6E5550FE6E5650FF6EFA50120062EF0A
:102E8C0017F0A2A04CEF17F04EEF17F062EF17F00F
:102E9C00B2A053EF17F055EF17F062EF17F002D80E
:102EAC0062EF17F00500FA6E5750FD6E5850FE6E2B
:102EBC005950FF6EFA50120011003EC542F53FC545
:102ECC0043F5000E1A6E000E196E7FEF17F03CC51D
:102EDC0036F53DC537F5420E386E050E396E40C5D8
:102EEC003AF541C53BF5DEEC13F036501926375058
:102EFC001A22610008F5F6F461000CF5F7F4000EE7
:102F0C00F86E0800F5500009D8A48FEF17F091EF78
:102F1C0017F06DEF17F019C53CF51AC53DF5120009
:102F2C002B6E5A50D8B49DEF17F09FEF17F097EF18
:102F3C0017F0A2B2A4EF17F0A6EF17F0ABEF17F053
:102F4C006100ACF4A3F2C1EF17F0A292110E2A2487
:102F5C00D96EDA6A050EDA226100ACF4DFF42A2AA3
:102F6C00070E2A64BCEF17F0BEEF17F0C0EF17F096
:102F7C00000E2A6E5A06A2821200356E000E67EC05
:102F8C0014F0C09C800E3524D96EDA6A050EDA2254
:102F9C00DF50326E000E346E000E336E3528336EF9
:102FAC0032C534F5330E2C6E050E2D6E000E2F6EC1
:102FBC00020E2E6E07EC18F0C08C57EC19F01200B4
:102FCC00080E5A60ECEF17F0EEEF17F005EF18F063
:102FDC00110E2924D96EDA6A050EDA22DF500201AD
:102FEC00A36F292A070E2964FEEF17F000EF18F0E3
:102FFC0002EF18F0000E296E5A2A06EF18F0A29272
:10300C0012002CC530F52DC531F518EF18F0610004
:10301C00C0F4D9F46100C4F4DAF4DF50D8EC18F041
:10302C00304A312A2E06D8A02F062E2806E12F284A
:10303C00D8A423EF18F025EF18F00DEF18F01200BC
:10304C003350346E32C535F5000E376E000E366EC9
:10305C0034C536F535C537F5000E67EC14F0C09C59
:10306C00360E2C6E050E2D6E000E2F6E020E2E6E71
:10307C0007EC18F0C08C57EC19F01200E9EC18F0C2
:10308C00000E75EC18F0030EB3EC18F00F0E336E47
:10309C00000E326E26EC18F0090E336E000E326EF6
:1030AC0026EC18F00B0E336E070E326E26EC18F071
:1030BC00120001EE60F1600EEE6AE806FDE101EE31
:1030CC0001F12A0EEE6AE806FDE10401080E5D6FBF
:1030DC00000E5E6F000E5F6F0001E3EF16F03A6EAC
:1030EC003A50D8A47CEF18F07FEF18F0010E80EF67
:1030FC0018F0000E386E396A000E3810326E0C0E55
:10310C003910336E26EC18F01200090E2824D96EF3
:10311C00DA6A050EDA22A1C2DFF4282A070E286427
:10312C009AEF18F09CEF18F09EEF18F0000E286E36
:10313C00262A1200460E466E050E476E000E3C6E99
:10314C00000E3D6E44C53EF545C53FF5460E406E3E
:10315C00050E416E63EC17F01200386E0F0E3864DA
:10316C00BAEF18F0BCEF18F0BEEF18F00F0E386E77
:10317C00000E3810326E0A0E336E26EC18F0120068
:10318C00000E0001606F000E616F000E636F000E89
:10319C00646F000E656F000E666F000E676F000E99
:1031AC00686F12002B6E010E0001826F6100ACF48F
:1031BC0081F0B1A0E4EF18F0E6EF18F0DFEF18F0B3
:1031CC00000180511200800E2B6E050E2C6E000E2D
:1031DC002E6E000E2D6E000E306E400E2F6E16EC05
:1031EC0013F01200000E366E3650C3EC17F0362A70
:1031FC00070E366404EF19F006EF19F0FAEF18F029
:10320C001200610E0001AD6F000EAF6F000EB36FB8
:10321C00050EB16F000EB06F000EAC6F12005DECBE
:10322C0019F0C6EC18F091EC15F007EC19F0EDEC78
:10323C0015F022EC19F01200020E0001846F400E02
:10324C00856F000E866F000E8C6F000E896FC8960E
:10325C0012002BC554F52CC555F52DC556F512008D
:10326C002BC557F52CC558F52DC559F512002BC596
:10327C004EF52CC54FF52DC550F512002BC551F54B
:10328C002CC552F52DC553F512002BC54BF52CC58D
:10329C004CF52DC54DF512002C6E2C5096EC17F0FC
:1032AC0012000001849F12008BEC18F01200D69AC9
:0632BC00120012001200D6
:020000040020DA
:10000000FF0FFF0FFF0FFF0FFF0FFF0FFF0FFF0F80
:10001000FF0FFF0FFF0FFF0FFF0FFF0FFF0FFF0F70
:020000040030CA
:0A000000ECFFF7FF9FFFFFFFFFFF7B
:00000001FF
